S011000050726F746F747970652E737265633D
S11300000C9434000C9446000C9446000C94460066
S11300100C9446000C9446000C9446000C94460044
S11300200C9446000C9446000C9446000C94460034
S11300300C9446000C9446000C9446000C94460024
S11300400C9446000C9446000C9446000C94460014
S11300500C9446000C9446000C9446000C94460004
S11300600C9446000C94460011241FBECFEFD8E038
S1130070DEBFCDBF21E0A0E0B1E001C01D92AC30F5
S1130080B207E1F70E9451000C949D000C9400000B
S1130090209887B18C7F87B9089587B1806387B929
S11300A008950E9448000E944D001092070110928A
S11300B006011092050110920401E0E0F1E081E0F4
S11300C090E09183808393838283E8E0F1E011825E
S11300D010821382128221E030E018990EC04FEF93
S11300E089E698E1415080409040E1F700C000006B
S11300F030930501209304011CC019990EC04FEFE1
S113010089E698E1415080409040E1F700C000004A
S1130110109205011092040106C08091040190918F
S11301200501009721F488B18F7C88B9D6CF019757
S1110130A1F688B1806388B9D0CFF894FFCFD0
S9030000FC
