S01900004D6173746572436F6E74726F6C556E69742E737265631E
S11300000C9434000C9451000C9451000C94510045
S11300100C9451000C9485000C9451000C945100E4
S11300200C9451000C9451000C9451000C94510008
S11300300C9451000C9451000C9451000C945100F8
S11300400C9451000C9451000C9451000C945100E8
S11300500C9451000C9451000C9451000C945100D8
S11300600C9451000C94510011241FBECFEFD8E022
S1130070DEBFCDBF11E0A0E0B1E0E0E8F2E002C0F5
S113008005900D92AE32B107D9F721E0AEE2B1E0AE
S113009001C01D92A233B207E1F70E9471000C94D3
S11300A03E010C940000F89484E0809368008CE096
S11300B080936D00789408958AB1837F8AB98BB157
S11300C08C608BB984B1806C84B985B18F7385B928
S11300D008952E9A08952E9808952F9A08952F988A
S11300E008950E945C000E945300E0913001F09159
S11300F03101EE0FFF1FE65EFE4F0190F081E02D0F
S11301000190F081E02D0995FFCF1F920F920FB659
S11301100F9211242F933F934F935F936F937F9389
S11301208F939F93AF93BF93CF93DF93EF93FF93FB
S1130130E0912F018E2F880F880F80932F01E9B152
S1130140EC70E695E695E82BE0932F01EF70F0E074
S1130150E25EFE4F908180912E01890F80932E01E3
S11301609CEF980F9430D0F580913001909131013B
S1130170E0E0F1E042E151E0CFE0D7E220813181DB
S11301808217930731F422813381232B11F4C48124
S1130190D5813696E417F50789F7CF3027E2D207E1
S11301A0D1F0880F991FFC01E65EFE4F0190F081AB
S11301B0E02D0280F381E02D0995D0933101C093A5
S11301C03001CC0FDD1FC65EDE4FE881F98101905E
S11301D0F081E02D099510922E013DC0895F843095
S11301E0D0F58091300190913101E0E0F1E042E1FD
S11301F051E0CFE0D7E2208131818217930739F4AF
S1130200228133812130310511F4C481D5813696A0
S1130210E417F50781F7CF3027E2D207D1F0880F32
S1130220991FFC01E65EFE4F0190F081E02D0280F3
S1130230F381E02D0995D0933101C0933001CC0FA7
S1130240DD1FC65EDE4FE881F9810190F081E02D6B
S1130250099510922E01FF91EF91DF91CF91BF91FB
S1130260AF919F918F917F916F915F914F913F914A
S11302702F910F900FBE0F901F901895F894FFCFF9
S11302800000000001000000010001000100000066
S113029000006D006F0069006B001601120100FF81
S11102A00100010000FFFF0000010001FF004B
S9030000FC
