S01900004D6173746572436F6E74726F6C556E69742E737265631E
S11300000C9434000C9451000C9451000C94510045
S11300100C9451000C94C5000C9451000C945100A4
S11300200C9451000C9451000C9451000C94510008
S11300300C9451000C9451000C943D010C9451000B
S11300400C9451000C9451000C9451000C945100E8
S11300500C9451000C9451000C9451000C945100D8
S11300600C9451000C94510011241FBECFEFD8E022
S1130070DEBFCDBF11E0A0E0B1E0ECE1F3E002C0EF
S113008005900D92AC34B107D9F721E0ACE4B1E0AE
S113009001C01D92A435B207E1F70E9477000C94C9
S11300A08C010C94000084E0809368008CE08093C1
S11300B06D00789408958AB1837F8AB98BB18C607E
S11300C08BB984B1806C84B92E982F980895F894D4
S11300D084B5826084BD85B5856085BD86E287BDB3
S11300E0EEE6F0E0808182608083789408950E9437
S11300F05B000E9453000E94670087B18C7F87B920
S113010083E088B982E090E090935101809350019C
S1130110E0913A01F0913B01F0935301E0935201D5
S11301200995FFCF2E9A2F9808950E949200089562
S11301302F9A2E9808950E94980008952F982E982B
S113014008950E949E000895E0E0F1E020E030E090
S1130150408151814817590789F4428153814617D8
S1130160570761F4F901EE0FFF1FE20FF31FEE0FC3
S1130170FF1FE050FF4F8481958108952F5F3F4F0B
S113018036962930310521F708951F920F920FB644
S11301900F9211242F933F934F935F936F937F9309
S11301A08F939F93AF93BF93EF93FF93E0914F018E
S11301B08E2F880F880F80934F01E9B1EC70E6957C
S11301C0E695E82BE0934F01EF70F0E0E45CFE4F1E
S11301D0908180914E01890F80934E019CEF980F7E
S11301E09430E0F460E070E080915001909151010E
S11301F00E94A4009093510180935001880F991F8D
S1130200FC01EA5CFE4F0190F081E02DF093530174
S1130210E0935201099510924E011EC0895F84300B
S1130220D8F461E070E080915001909151010E94F6
S1130230A4009093510180935001880F991FFC01F1
S1130240EA5CFE4F0190F081E02DF0935301E093BE
S11302505201099510924E01FF91EF91BF91AF9118
S11302609F918F917F916F915F914F913F912F91CA
S11302700F900FBE0F901F9018951F920F920FB6FC
S11302800F9211242F933F934F935F936F937F9318
S11302908F939F93AF93BF93EF93FF9346B1809156
S11302A04C0190914D01880F991F906E242F21705D
S11302B030E0822B932B90934D0180934C01811558
S11302C0904FC9F462E070E0809150019091510127
S11302D00E94A4009093510180935001880F991FAC
S11302E0FC01EA5CFE4F0190F081E02DF093530194
S11302F0E09352010995FF91EF91BF91AF919F91C6
S11303008F917F916F915F914F913F912F910F90BA
S10F03100FBE0F901F901895F894FFCFBB
S113031C00000000010000000100010000000200C8
S113032C02000100000000000100010000000100B7
S113033C02000200020000000200020001000200A0
S113034C02000200000095009B00A10000FF0100C8
S10F035C010000FFFF0000010001FF0091
S9030000FC
