:100000000C9434000C9451000C9451000C94510049
:100010000C9451000C9483000C9451000C945100EA
:100020000C9451000C9451000C9451000C9451000C
:100030000C9451000C9451000C94CD000C94510080
:100040000C9451000C9451000C9451000C945100EC
:100050000C9451000C9451000C9451000C945100DC
:100060000C9451000C94510011241FBECFEFD8E026
:10007000DEBFCDBF11E0A0E0B1E0E6EFF1E002C0ED
:1000800005900D92A031B107D9F721E0A0E1B1E0D0
:1000900001C01D92A731B207E1F70E9477000C94CE
:1000A000F9000C94000084E0809368008CE0809359
:1000B0006D00789408958AB1837F8AB98BB18C6082
:1000C0008BB984B1806C84B92E982F980895F894D8
:1000D00084B5826084BD85B5856085BD86E287BDB7
:1000E000EEE6F0E0808182608083789408950E943B
:1000F0005B000E9453000E94670087B18C7F87B924
:1001000083E088B9FFCF1F920F920FB60F92112490
:100110004F935F936F937F938F939F93AF93BF930F
:10012000EF93FF93E09112018E2F880F880F809339
:100130001201E9B1EC70E695E695E82BE093120127
:1001400040911301509114016091150170911601B5
:10015000EF70F0E0E050FF4F8081082E000C990B0B
:10016000AA0BBB0B840F951FA61FB71F809313010B
:1001700090931401A0931501B0931601FF91EF9194
:10018000BF91AF919F918F917F916F915F914F91AF
:100190000F900FBE0F901F9018951F920F920FB6E1
:1001A0000F9211242F933F934F938F939F9346B1B8
:1001B0008091100190911101880F991F906E242F4A
:1001C000217030E0822B932B9093110180931001CA
:1001D0008115904F21F495B180E4892785B99F91CD
:1001E0008F914F913F912F910F900FBE0F901F90C5
:0601F0001895F894FFCF02
:1001F60000FF0100010000FFFF0000010001FF00F9
:00000001FF
